:020000040800F2
:10000000387400207D020008B9750008DF3B000845
:10001000B5750008BF0B0008EDA400080000000043
:100020000000000000000000000000001989000826
:100030009F0F000800000000EB020008D18A0008B2
:10004000970200089702000897020008970200082C
:10005000970200089702000897020008970200081C
:10006000970200089702000897020008970200080C
:1000700097020008970200089702000897020008FC
:1000800097020008970200089702000897020008EC
:1000900097020008970200089702000897020008DC
:1000A00097020008970200089702000897020008CC
:1000B00097020008998B0008E58B0008970200085A
:1000C00097020008970200089702000897020008AC
:1000D00097020008A5A400089702000897020008EC
:1000E000970200089702000897020008970200088C
:1000F000970200089702000897020008970200087C
:10010000970200089702000897020008970200086B
:10011000970200089702000897020008970200085B
:10012000690E00089702000897020008970200086D
:10013000970200089702000897020008970200083B
:10014000970200089702000897020008970200082B
:10015000970200089702000897020008970200081B
:10016000970200089702000897020008970200080B
:10017000970200089702000897020008000000009C
:10018000970200089702000800F002F800F065F8F6
:100190000AA090E8000C82448344AAF10107DA45E2
:1001A00001D100F05AF8AFF2090EBAE80F0013F0CF
:1001B000010F18BFFB1A43F001031847E42C01009C
:1001C000042D01000A444FF0000C10F8013B13F01D
:1001D000070408BF10F8014B1D1108BF10F8015BA0
:1001E000641E05D010F8016B641E01F8016BF9D193
:1001F00013F0080F1EBF10F8014BAD1C0C1B09D1EA
:100200006D1E58BF01F801CBFAD505E014F8016B5B
:1002100001F8016B6D1EF9D59142D6D370470000ED
:100220000023002400250026103A28BF78C1FBD8FF
:10023000520728BF30C148BF0B607047642900F0E7
:100240006981782900F0A281732900F0D182002011
:1002500070471FB51FBD10B510BDDFF810D0FFF7F8
:10026000F8FF0CF095FD00F0F5FA0000387400205E
:1002700003B4FFF7F0FF03BC0AF0E2FA0648804738
:1002800006480047FEE7FEE7FEE7FEE7FEE7FEE77B
:10029000FEE7FEE7FEE7FEE7F18A000889010008B5
:1002A000EFF3108072B6704780F3108870471F48D4
:1002B0004FF6FF710170002080F309881C48016827
:1002C00081F308881B48012101701B484FF08051C1
:1002D000016062B6FEE718484FF080510160704738
:1002E00015484FF080510160704772B6EFF30980F6
:1002F00028B1203880E8F00F10490968086000B57F
:100300000F4880475DF804EB0E480F490A780270E9
:100310000A480E490A680260106890E8F00F203021
:1003200080F309884EF0F40E62B6704722ED00E0CB
:10033000D4000020AE00002004ED00E0B400002056
:10034000517D0008A3000020A4000020BC00002074
:10035000704753EA020C00F069802DE9F04B4FF032
:100360000006002B1FBFB3FA83F503FA05F424FA45
:1003700005F65E4012BF1643B2FA82F502FA05F4A2
:10038000C5F120051EBF22FA05FC44EA0C04203505
:1003900056EA044C4FEA144418BF641C4FF000089E
:1003A0004FF00009904271EB030C39D3002919BFBB
:1003B000B1FA81F701FA07F6B0FA80F700FA07F60A
:1003C000C7F120071EBF20FA07FC46EA0C062037BB
:1003D000B6FBF4FCA7EB0507103F07F01F0BCBF1B2
:1003E00020060CFA0BFB2CFA06F644BFB346002697
:1003F000202FA4BF5E464FF0000B5BEA060C08BF3F
:100400004FF0010B19EB0B09ABFB027C48EB060824
:10041000C01B06FB02CC0BFB03CC71EB0C01C1E74C
:100420000B46024641464846BDE8F08B13B54FF0F7
:1004300000004FF00001AFF30080BDE81C407047A2
:100440000FB4044910B503AA029800F0D5F910BC06
:100450005DF814FB800000202DE9F0410E460446B3
:10046000002020622046E168884730B3252805D067
:10047000D4E901219047206A401CF2E7E168204658
:1004800000278847050018D0A5F14100192802D897
:1004900020354FF400673246294620462760FFF793
:1004A000CDFE40B1012804D0F61D26F0070608361F
:1004B000D8E7361DD6E72846DAE7206ABDE8F0819E
:1004C00070B50C460546012A05D02878800600D56F
:1004D000EA69002302E0012305E05B1C934202D29B
:1004E000E05C0028F9D1A869E618C01AA861286A5A
:1004F000184428622846AFF3008004E0D5E90121C2
:1005000014F8010B9047B442F8D32846AFF30080AB
:1005100070BD00002DE9F0410646002410687529E1
:10052000314616A510D0AFF30080002802DA404211
:1005300013A507E031688A0701D512A502E0490733
:1005400004D511A5012401E0AFF3008000210A22A7
:1005500006F1240709E0B0FBF2FCB0FBF2F302FB6A
:100560001C00303078541846491C0028F3D123462B
:100570002A463046BDE8F04100F0CFB80000000048
:100580002D0000002B0000002000000070B5044684
:100590000D4621461068AFF300802188090502D579
:1005A0000F4A7A4402E00E4A7A440E32002104F1E6
:1005B000240305E000F00F060009965D5E54491C17
:1005C0000028F7D120780023000704D5702D02D031
:1005D00009B1022311322046BDE8704000F09DB8F9
:1005E0005628010010B5203AC0F00B80B1E8185031
:1005F000203AA0E81850B1E81850A0E81850BFF40D
:10060000F5AF5FEA027C24BFB1E81850A0E81850AB
:1006100044BF18C918C0BDE810405FEA827C24BFFF
:1006200051F8043B40F8043B08BF7047D20728BF8D
:1006300031F8023B48BF11F8012B28BF20F8023BDC
:1006400048BF00F8012B70474FF0000200B5134679
:1006500094469646203922BFA0E80C50A0E80C50E2
:10066000B1F12001BFF4F7AF090728BFA0E80C5093
:1006700048BF0CC05DF804EB890028BF40F8042B8C
:1006800008BF704748BF20F8022B11F0804F18BFF9
:1006900000F8012B704700004FF0013C50F8042B8C
:1006A00051F8043B9A4221D1A2EB0C03934313EA85
:1006B000CC1317D150F8042B51F8043B9A4215D1B2
:1006C000A2EB0C03934313EACC130BD150F8042B89
:1006D00051F8043B9A4209D1A2EB0C03934313EA6D
:1006E000CC13DBD04FF00000704700BFD01A01BA26
:1006F000B1FA81F101F0180122FA01F0CB40C1F109
:100700002001DBB2C0B2C01A2CFA01F3D11A914316
:1007100011EAC311E6D1704770472DE9F0470D4645
:1007200099469246044600F124080168880604D5DB
:10073000E06921F01001216000E00120A84201DD04
:10074000471B00E00027A1697A1902EB0900081A8B
:10075000A0612078C00602D42046AFF300800026B6
:1007600008E0D4E901211AF806009047206A401CED
:10077000761C20624E45F4DB2078C0060AD5204660
:10078000AFF3008006E0D4E9012130209047206AD1
:10079000401C2062381EA7F10107F4DC07E0D4E911
:1007A000012118F805009047206A401C2062281E8D
:1007B000A5F10105F3DC2046AFF3008020780006A8
:1007C00002D50220BDE8F0870120FBE710B54369A0
:1007D00013B1AFF3008001E0FFF772FE012010BDFE
:1007E000127800F124010A7000224A700122EDE71C
:1007F00011684FF0FF32E9E7074B70B50D467B44B7
:1008000000F011F80446284600F020F810B14FF02F
:10081000FF3070BD204670BD97BD000001694A1CC5
:1008200002610878704700B58FB0CDE90131002131
:10083000059105497944CDE9031011466846FFF753
:100840000BFE0FB000BD0000E5FFFFFF007B00F0D6
:100850008000704710B50446AFF300802046BDE825
:100860001040FFF705BD000010B5084A91881068D8
:10087000012201F009FF01200AF076FD034A918868
:100880001068002201F000FF10BD000018010020D8
:10089000704770B50546AC6B206C00F0500050BB43
:1008A000206C40F4007020642068806800F04050A4
:1008B000E8B9207ED8B92068C06A00F4700020B181
:1008C0002068806800F4806088B92068406820F063
:1008D000200021684860206C20F480702064206C27
:1008E00000F4805018B9206C40F0010020642046CC
:1008F00001F00CFA0BE0206C00F0100018B120465B
:1009000001F006FA03E0A06BC16C2846884770BD71
:1009100070B50546AC6B40202064606C40F004006C
:100920006064204601F0F4F970BD70B50446A56B13
:10093000284601F0ECF970BD55494A6822F440326E
:100940004A604A6843681A434A600268526822F45F
:10095000807203685A6002685368026943EA02229F
:1009600003685A600268526822F0407203685A6055
:100970000268526883681A4303685A600268926882
:1009800022F4006203689A6002689268C3681A439E
:1009900003689A603F4B826A9A4218D00268926854
:1009A00022F0706203689A6002689268836A1A4350
:1009B00003689A600268926822F0405203689A6065
:1009C00002689268C36A1A4303689A600BE002687F
:1009D000926822F0706203689A600268926822F05E
:1009E000405203689A600268926822F0020203682B
:1009F0009A6002689368027E43EA420203689A6042
:100A00002022125CA2B10268526842F400620368BC
:100A10005A600268526822F4604203685A600268B1
:100A20005368426A521E43EA423203685A6005E044
:100A30000268526822F4006203685A600268D26A4F
:100A400022F470020368DA620268D36A828B521E53
:100A500043EA02520368DA620268926822F4007282
:100A600003689A600268936890F8302043EA422253
:100A700003689A600268926822F4806203689A6050
:100A800002689368426943EA822203689A60704769
:100A9000002301400100000F10B503F0CBF810BD9A
:100AA0002DE9F04107460C460026002509E03602F4
:100AB0003919491B491E88B200F008F80644681C21
:100AC000C5B2A542F3DB3046BDE8F08170B50446FF
:100AD000002603F06FF92546E11704EB11610912B6
:100AE000A02202EB4101C8B203F030F903F0AEF9E5
:100AF000E11704EB11610912A4EB0121C8B203F064
:100B000025F903F0A3F903F055F9A12003F01EF92C
:100B100003F09CF9002003F0E3F8064603F070F9B7
:100B2000304670BD2DE9F04105460E4617460024BB
:100B300009E0E20026FA02F2D1B22A1990B200F0DE
:100B400006F8601CC4B2BC42F3DBBDE8F08170B5AE
:100B500004460E4603F02EF92546E11704EB116119
:100B60000912A02202EB4101C8B203F0EFF803F032
:100B70006DF9E11704EB11610912A4EB0121C8B270
:100B800003F0E4F803F062F9304603F0DFF803F015
:100B90005DF903F035F90A200AF012FC70BD40F44B
:100BA00080528A7013124B7000230B70704770478D
:100BB000704770477047704770477047704700BF75
:100BC000FEE710B502200AF031FC10BD10B5002080
:100BD0000A490860FFF7F5FF01200949C1F88002C2
:100BE000FFF7EFFF002007490860FFF7EAFF012049
:100BF0000549C1F8AC02FFF7E4FF10BDAC824242E8
:100C000000804042808240420080424200B587B06E
:100C100000BF002001901B48006840F00200194905
:100C200008600846006800F00200019000BF00BFA5
:100C300000BF002001900846006840F020000860D6
:100C40000846006800F02000019000BF00BF0120AE
:100C5000029011200390012004900320059002A926
:100C6000094801F009FC4FF40060029002A907480E
:100C700001F002FC0120064908600649C1F8800223
:100C800007B000BD303802400004024000140240AA
:100C9000AC8242420080404210B501200749086002
:100CA000FFF78FFF01200649C1F88002FFF789FF97
:100CB000002004490860FFF784FF10BDAC82424267
:100CC000008040428082404270B5054600240026E4
:100CD00013E06006040E01200D490860FFF771FF64
:100CE0000C48D0F82C0208B1601CC4B2002008499E
:100CF0000860FFF766FF701CC6B2082EE9DB15B965
:100D0000FFF7CAFF01E0FFF761FF204670BD00005A
:100D1000808240420080424270B50446002511E0C6
:100D2000E0090B490860FFF74CFF01200949C1F8B1
:100D30008002FFF746FF0020074908606006040EA6
:100D4000681CC5B2082DEBDB01200149086070BDAD
:100D5000AC824242008040428082404210B5012075
:100D6000094908600949C1F88002FFF72AFF0020FD
:100D700005490860FFF725FF00200449C1F88002FB
:100D8000FFF71FFF10BD0000AC82424200804042CE
:100D900010B5002007490860FFF713FF012006493E
:100DA000C1F88002FFF70DFF012002490860FFF73C
:100DB00008FF10BDAC8242420080404270B5002462
:100DC0000025012010490860FFF7FBFE01200F49B4
:100DD000C1F88002FFF7F5FE09E0601CC4B2FA2CEE
:100DE00003DDFFF7D5FF012506E0FFF7EAFE064821
:100DF000803800680028F0D100BF00200449086056
:100E0000FFF7DFFE284670BDAC82424200804042C0
:100E1000808240427FB5089C04F00103C4F3400582
:100E20006B4083F00102BDF80410009801F02CFC27
:100E3000BDF80C10C4F34002029801F025FC7FBD00
:100E400010B50446002C01DB032C02DDFFF720FD6A
:100E500010BD044802190121002009F049FB00BF20
:100E6000F6E700004C01002010B5002007E007491C
:100E700031F8102001F5006121F81020401CB0F578
:100E8000806FF4DB024801F011F910BDD02B002077
:100E9000706E00200146087810381823B0FBF3F27A
:100EA0000848805CC865032A05D908686FF3090003
:100EB000001D886503E008686FF309008865886D88
:100EC00070470000A0E40008014600208A6A8B6990
:100ED000CBB932B1012A0DD0022A03D0032A10D196
:100EE0000EE000BFCB6A03F08073B3F1807F00D1C6
:100EF000012007E0CB6AB3F1C07F00D1012001E0FF
:100F000000E000BF34E08B69B3F5005F1AD132B165
:100F1000012A07D0022A03D0032A11D10AE000BF18
:100F200001200EE0CB6A03F08073B3F1807F00D123
:100F3000012006E0CB6AB3F1C07F00D1012000E0C0
:100F400000BF15E032B1012A05D0022A04D0032ADD
:100F50000CD103E000BF00BF012008E0CB6A03F022
:100F60008073B3F1807F00D1012000E000BF00BF9B
:100F7000704730B50468246824F4802405682C6028
:100F8000046863608468402C04D10468A26004682B
:100F9000E16003E00468A1600468E26030BD70476E
:100FA0002DE9F84305460E4614461F46DDE908893B
:100FB000002D0BDB002E09DB28191A49098888420D
:100FC00004DC301917494988884202DD0120BDE858
:100FD000F883052C01DA0220F9E7301983B22819C9
:100FE00082B231462846CDF8008003F097FABFB1AF
:100FF00006EB040CACF1020C1FFA8CF305EB040CAD
:10100000ACF1020C1FFA8CF206F1020C1FFA8CF103
:1010100005F1020C1FFA8CF0CDF8009003F07EFA77
:101020000020D4E7606E00200448006808B9012061
:1010300000E000200149086070470000A882424299
:1010400070B504461D460023B5F5804F13D154F802
:1010500022300C480340D1E9000640EA06108E68B1
:1010600040EA06208E8940EA06408E6930430343F9
:1010700044F8223003E06FF0704044F82200002072
:1010800070BD00000000F0CF10B5034600220868D4
:1010900053F8202012480240D1E901042043CC68D3
:1010A00020430C6920434C6920438C692043CC6960
:1010B00020430C6A20434C6A20438C6A2043CC6A4C
:1010C0002043CC6B20430C6B2043024388680828E4
:1010D00001D142F04002086843F82020002010BDF2
:1010E0008000F0FF30B503460024501C53F8204028
:1010F00004F04044D1E9000540EA05108D6840EA5B
:1011000005208D8940EA0545088A401E45EA0055BC
:10111000087D801E45EA00608D6928430443501C09
:1011200043F82040002030BD00B589B000BF00204A
:1011300001905048006840F002004E49086008469F
:10114000006800F00200019000BF00BF00BF002057
:1011500001900846006840F00400086008460068F6
:1011600000F00400019000BF00BF022002900020A8
:101170000390012004900320059002A93E4801F04D
:101180007BF94FF4005002900120039002A93B48E4
:1011900001F072F9FFF73AFD002039490860142088
:1011A0000AF00EF901203749C1F8B40232200AF0E2
:1011B00007F900208DF81C00012207A900F05AFA57
:1011C000012207A9A42000F055FA16208DF81C0072
:1011D000012207A9802000F04DFA0C208DF81C0098
:1011E000012207A9882000F045FA022207A9A120C0
:1011F00000F058F89DF81C0030280DD19DF81D0016
:10120000032809D19DF81D009DF81C2000EB022148
:101210001DA0FFF715F92AE0042207A948F24010A3
:1012200000F02CFB00208DF8200007A919A0FFF783
:1012300007F91B480799016002208DF81C00012264
:1012400007A948F2400000F06DFC012207A948F20E
:10125000470000F013FB0A200AF0B2F800208DF8D6
:101260001C00012207A948F2400000F05BFC0020AE
:1012700009B000BD303802400004024000080240BE
:10128000B4024142000041424354502049443A25AF
:10129000780D0A004354502049443A25730D0A0042
:1012A0007D0100202DE9F04106460F461546FFF767
:1012B00055FD7020FFF730FDFFF780FDF0B2FFF71E
:1012C0002BFDFFF77BFDFFF749FD7120FFF724FDA4
:1012D000FFF774FD00240BE0691EA14201D001213B
:1012E00000E000210846FFF7EFFC3855601CC4B24F
:1012F000AC42F1DBFFF74CFDBDE8F08171B583B086
:10130000002001900026D3480078401CD149087085
:10131000084600780A2190FBF1F201FB120018B197
:10132000CC4800780A287DDACBA1CC48FFF7B4F985
:10133000D8B9012203A948F24E1000F09FFA9DF897
:101340000C0000F08000A8B19DF80C0000F00F0028
:10135000C349097888420DDC00200190012201A9CF
:1013600048F24E1000F0DEFB04E0012203A9022047
:10137000FFF798FF9DF80C0000F00F00002851D0F7
:101380009DF80C0000F00F00B5490978884249DC4F
:101390009DF80C0000F00F01FF208840C4B2B14856
:1013A00090F82050E043C0B240F0C000AD4981F851
:1013B000200008468289AA480078401E0C3121F896
:1013C0001020A848C28AA6480078401E0A3121F899
:1013D0001020042009F0F4FF00200190ABE0A148A8
:1013E00090F820009DF80420012191400840002839
:1013F0002FD099A19948FFF74FF9E8BB9A499DF87A
:10140000042031F81200042202A900F037FA9548AE
:1014100090F8300000F00100E0B19DF808009DF860
:10142000091000E0C5E000EB012081B28D480C30CE
:101430009DF8042020F812109DF80A009DF80B106A
:1014400000EB012081B2874816309DF8042020F877
:1014500012106BE09DF808009DF8091000EB0120C8
:1014600081B2804816309DF8042020F812109DF8B3
:101470000A009DF80B1000E00CE000EB01207B4916
:101480000988081A81B277480C309DF8042020F8AA
:1014900012104BE076499DF8042031F81200042226
:1014A00002A9FFF7FFFE6F4890F8300000F001003E
:1014B000E0B19DF809009DF8081001F00F0100EB64
:1014C0000120684916319DF8042021F812009DF88A
:1014D0000B009DF80A1001F00F0100EB012061499B
:1014E0000C319DF8042021F812001FE09DF809003E
:1014F0009DF8081001F00F0100EB01205B490988FD
:10150000081A81B257480C309DF8042020F81210B8
:101510009DF80B009DF80A1001F00F0100EB01206F
:10152000504916319DF8042021F812009DF804005E
:10153000401CC0B201909DF80400494909788842D6
:10154000FFF64DAF012647488089484909888842FF
:1015500005DC4448C08A45494988884226DD9DF813
:101560000C0000F00F0001280ADD3E48C0893D490B
:1015700088810846008BC88200203649087018E030
:1015800037480078401E37490C3131F810000C39CB
:10159000888133480078401E163131F81000163922
:1015A000C8828020039081F8205002E00020294961
:1015B000087029A12948FFF76FF808BB9DF80C00B7
:1015C00000F08F0080283BD1264890F8200000F0E2
:1015D000800040B1234890F8200020F0800021498D
:1015E00081F820002CE04FF6FF701E498881C882E8
:1015F000084690F8200000F0E00081F820001FE08D
:101600009DF80C0000F01F00D0B9164890F820009B
:1016100000F0800040B1134890F8200020F08000D6
:10162000104981F820000BE04FF6FF700D498881CA
:10163000C882084690F8200000F0E00081F8200001
:1016400004480078F02802DD0A200249087030467C
:1016500004B070BD83010020393131007D010020CC
:101660008201002088010020F22C0108606E002019
:10167000E82C01082DE9F04105460E4617464FF0CB
:101680000008FFF76BFB7020FFF746FBFFF796FBA8
:10169000E8B2FFF741FBFFF791FB00240BE0305D60
:1016A000FFF73AFBFFF78AFB8046B8F1000F00D046
:1016B00003E0601CC4B2BC42F1DB00BFFFF768FB73
:1016C0004046BDE8F08100002DE9F84F04460D4684
:1016D0009246204629460CF0BDF800900CF0FEF82A
:1016E00006460C4A0C4B0CF049F980460CF0B2F857
:1016F00083468AF803B04FEA1B208AF802004FEABB
:101700001B408AF801004FEA1B608AF80000BDE820
:10171000F88F000095D626E80B2E214000B589B041
:1017200000BF002001904648006840F00200444994
:1017300008600846006800F00200019000BF00BF8A
:1017400000BF002001900846006840F004000860D7
:101750000846006800F00400019000BF00BF0220AE
:10176000029000200390012004900320059002A91C
:10177000344800F081FE4FF40050029001200390A5
:1017800002A9314800F078FEFFF740FA00202F4907
:1017900008600A2009F014FE01202D49C1F8B402A6
:1017A0000A2009F00DFE0220029001200390002083
:1017B00004900320059002A9224800F05DFE6420F9
:1017C00009F0FEFD042207A948F2401000F056F887
:1017D00000208DF8200007A91EA0FEF731FE20A1F1
:1017E00007A8FEF759FF48BB02208DF81C00012214
:1017F00007A948F2400000F095F9012207A948F234
:10180000470000F03BF89DF81C00602807DA9DF8BF
:101810001C1015A0FEF714FE012000F055F90A2057
:1018200009F0CEFD00208DF81C00012207A948F226
:10183000400000F077F9002009B000BD0020FBE770
:10184000303802400004024000080240B402414225
:10185000000041424354502049443A25730D0A0088
:10186000393134370000000044656661756C7420BE
:101870005665723A25640D0A000000002DE9F0411A
:1018800005460F461646FFF769FA2820FFF744FA87
:10189000FFF794FA2812FFF73FFAFFF78FFAE8B242
:1018A000FFF73AFAFFF78AFAFFF758FA2920FFF70D
:1018B00033FAFFF783FA00240BE0711EA14201D036
:1018C000012100E000210846FFF7FEF93855601CB1
:1018D000C4B2B442F1DBFFF75BFABDE8F08100006F
:1018E00071B583B00024002673480078401C72490B
:1018F0000870084600780A2190FBF1F201FB120003
:1019000018B16D4800780A287EDA012203A948F24E
:101910004E10FFF7B3FF00200190012201A948F209
:101920004E1000F0FFF89DF80C0000F00F000028AA
:101930006AD09DF80C0000F00F000628E4DA9DF84C
:101940000C0000F00F01FF208840C0B201905B48FE
:1019500090F820509DF80400C043C0B240F0C00091
:10196000564981F82000084681898182C18AC18355
:10197000002444E0514890F820000121A140084093
:1019800020B34F4931F81400042202A9FFF776FF73
:101990004A4890F8300000F00100C0B19DF80800FE
:1019A0009DF8091000EB012081B24448163020F860
:1019B00014109DF80A009DF80B1000EB0120C0F5F3
:1019C000487081B23D480C3020F8141015E09DF8A5
:1019D00008009DF8091000EB012081B237480C3057
:1019E00020F814109DF80A009DF80B1000EB012060
:1019F00081B23248163020F81410601CC4B2052C95
:101A0000B8DB01262D4800E02BE080892D490988AC
:101A1000884205DC2948C08A2A49498888421DDD58
:101A20009DF80C0000F00F0001280ADD2348C08952
:101A3000224988810846008BC88200201E49087010
:101A40000FE01E48808A1D4988810846C08BC882E5
:101A500080200390084680F8205002E000201649BC
:101A600008709DF80C0000F08F00802819D11348F1
:101A700090F8200000F0800038B1104890F8200065
:101A800020F080000D4981F820004FF6FF700B49CF
:101A90008881C882084690F8200000F0E00081F8B4
:101AA000200005480078F02802DD0A20024908706D
:101AB000304604B070BD0000840100208801002081
:101AC000B42D0108606E002038B5054600240020C2
:101AD0008DF800008DF8015000BF09E09DF800006E
:101AE0000F49095D0844C0B28DF80000601CC4B203
:101AF000B82CF3D39DF80000C043401CC0B28DF851
:101B00000000B822064948F2470000F00BF8022214
:101B1000694648F2FF0000F005F8002038BD0000DB
:101B2000FC2C01082DE9F04104460E4617464FF003
:101B30000008FFF713F92820FFF7EEF8FFF73EF94A
:101B40002012FFF7E9F8FFF739F9E0B2FFF7E4F800
:101B5000FFF734F900250BE0705DFFF7DDF8FFF7C4
:101B60002DF98046B8F1000F00D003E0681CC5B223
:101B7000BD42F1DB00BFFFF70BF94046BDE8F08145
:101B800038B502460020009000BF92F83C000128C2
:101B900001D1022038BD012082F83C0000BF086856
:101BA000092816D91068C0680C780A3C04EB440573
:101BB0000724AC40A0431468E0600C780A3C04EBB6
:101BC00044048868A0401468E46820431468E06016
:101BD00013E0106800690C7804EB44050724AC405E
:101BE000A043146820610C7804EB44048868A0408A
:101BF000146824692043146820614868072817D2B4
:101C00001068406B0C79641E04EB84051F24AC4003
:101C1000A04314686063088880B20C79641E04EBEA
:101C20008404A0401468646B20431468606331E04E
:101C300048680D2817D21068006B0C79E41F04EB7C
:101C400084051F24AC40A04314682063088880B238
:101C50000C79E41F04EB8404A0401468246B204337
:101C60001468206316E01068C06A0C790D3C04EB20
:101C700084051F24AC40A0431468E062088880B249
:101C80000C790D3C04EB8404A0401468E46A204302
:101C90001468E062194B1A4C1068A04206D108681B
:101CA000122803D1586840F480005860144C106822
:101CB000A0421CD10868102802D00868112816D14B
:101CC000586840F400005860086810280FD10D488B
:101CD00000680D4CB0FBF4F000EB80004000009079
:101CE00002E00098401E009000980028F9D100BF43
:101CF000002082F83C0000BF00BF4BE700230140FA
:101D0000002001406800002040420F0070477047EB
:101D10007047000070B5044600250CB9012070BD65
:101D20001549A06A884200D000BF206C30B9204617
:101D300000F024F80020606484F83C00206C00F07F
:101D4000100088B9206C20F4885040F00200206414
:101D50002046FEF7F1FD00206064206C20F00200B8
:101D600040F00100206400E0012500BF002084F85D
:101D70003C0000BF2846D2E70100000F10B586B036
:101D8000044600BF002000901548006840F48070B1
:101D9000134908600846006800F48070009000BF96
:101DA00000BF00BF002000900D481438006840F0CC
:101DB00001000B49143908600846006800F0010072
:101DC000009000BF00BF202001900320029000205F
:101DD000039001A9034800F04FFB06B010BD0000BE
:101DE0004438024000000240F8B504460D4616464D
:101DF0000020009000BF94F83C00012801D102208F
:101E0000F8BD012084F83C0000BF2068806800F025
:101E10000100A0B92068806840F001002168886056
:101E2000494800684949B0FBF1F000EB40000090E0
:101E300002E00098401E009000980028F9D1206828
:101E4000806800F0010000287CD0206C40F2016125
:101E5000884340F4807020642068406800F480600B
:101E600028B1206C20F4005040F480502064206C95
:101E700000F48050B0F5805F04D1606C20F0060063
:101E8000606401E00020606400BF002084F83C0032
:101E900000BF2F4F2F48A16BC8632F48A16B086468
:101EA0002E48A16BC8646FF022002168086020688A
:101EB000406840F08060216848602068806840F495
:101EC000807021688860226802F14C0133462A46FE
:101ED000A06B00F081FA786800F01F0018BB204961
:101EE0002068884213D01F492068884204D1381DD9
:101EF000006800F01F0050B11B492068884221D1C2
:101F00001348001D006800F01F0010281AD2206836
:101F1000806800F0405028B92068806840F0804018
:101F2000216888600EE00E49206888420AD1206846
:101F3000806800F0405028B92068806840F08040F8
:101F40002168886000205BE76800002040420F00A5
:101F500000230140930800082B090008110900081C
:101F600000200140002101400022014070B50446DC
:101F7000002500BF94F83C00012801D1022070BD6B
:101F8000012084F83C0000BF2068806820F0010038
:101F9000216888602068806800F00100A8B9206886
:101FA000806820F4807021688860A06B00F014F8CD
:101FB00005462068406820F0806021684860206CF9
:101FC00020F4885040F00100206400BF002084F815
:101FD0003C0000BF2846D2E770B50446A56D00F06E
:101FE0005FFB064694F83500022808D08020606523
:101FF00000BF002084F8340000BF012070BD2068BD
:10200000006820F01600216808602068406920F010
:10201000800021684861206C08B9A06C28B1206854
:10202000006820F00800216808602068006820F03F
:102030000100216808600FE000F032FB801B0528DA
:102040000AD92020606500BF002084F8340000BF5A
:10205000032084F83500D1E72068006800F0010013
:102060000028E9D194F85C103F208840A86000BFA8
:10207000002084F8340000BF012084F835000020DF
:10208000BCE7014691F83500022803D0802048655E
:1020900001207047052081F835000868006820F0AD
:1020A00001000A6810600020F3E70000F8B504465C
:1020B000002000908C4800684FF41651B0FBF1F7F7
:1020C000A56D2E6894F85C1008208840304098B1C7
:1020D0002068006800F0040070B12068006820F0FB
:1020E00004002168086094F85C1008208840A8600B
:1020F000606D40F00100606594F85C10012088403C
:10210000304068B12068406900F0800040B194F828
:102110005C1001208840A860606D40F0020060659E
:1021200094F85C1004208840304068B12068006852
:1021300000F0020040B194F85C1004208840A860D0
:10214000606D40F00400606594F85C1010208840D9
:10215000304078B32068006800F0080050B394F86D
:102160005C1010208840A8602068006800F480207F
:1021700080B12068006800F4002028B9206CC8B144
:102180002046216C884715E0A06C98B12046A16CD0
:1021900088470FE02068006800F4807028B9206844
:1021A000006820F0080021680860206C10B120460B
:1021B000216C884794F85C1020208840304000282B
:1021C00065D02068006800F0100000285FD094F807
:1021D0005C1020208840A86094F83500052828D19C
:1021E0002068006820F016002168086020684069B7
:1021F00020F0800021684861206C08B9A06C28B1EB
:102200002068006820F008002168086094F85C10DD
:102210003F208840A86000BF002084F8340000BF41
:10222000012084F83500206D10B12046216D8847CB
:10223000F8BD2068006800F4802080B12068006844
:1022400000F4002028B9606C10B12046616C88470A
:102250001DE0E06BD8B12046E16B884717E02068AD
:10226000006800F4807068B92068006820F01000F1
:102270002168086000BF002084F8340000BF0120FE
:1022800084F83500E06B10B12046E16B8847606D43
:1022900038B3606D00F00100F0B1052084F835001E
:1022A0002068006820F001002168086000BF0098E5
:1022B000401C0090B84200D905E02068006800F09A
:1022C00001000028F3D100BF00BF002084F83400D3
:1022D00000BF012084F83500E06C10B12046E16CAD
:1022E000884700BFA4E70000680000202DE9F04106
:1022F0000446002500F0D4F9074614B90120BDE8D2
:10230000F081606A00B100BF00BF002084F8340093
:1023100000BF022084F835002068006820F001002A
:10232000216808600AE000F0BBF9C01B052805D948
:1023300020206065032084F83500E0E7206800680D
:1023400000F001000028EED1206805682148054012
:10235000D4E901010843E168084321690843616940
:102360000843A1690843E1690843216A084305431A
:10237000606A042803D1D4E90B01084305432068AF
:1023800005602068456925F00705606A0543606AB5
:1023900004280DD1A06A0543E06A48B12046FEF743
:1023A00093FD28B140206065012084F83500A6E740
:1023B000206845612046FEF76DFD064694F85C10E6
:1023C0003F208840B06000206065012084F835001F
:1023D000002094E73F8010F02DE9F04704460D46B9
:1023E00016461F464FF00008D4F8589000BF94F8E6
:1023F0003400012802D10220BDE8F087012084F8D2
:10240000340000BF94F8350001282BD1022084F855
:102410003500002060653B46324629462046FEF7DF
:10242000A8FD94F85C103F208840C9F80800206897
:10243000006840F01600216808602068406940F09C
:10244000800021684861206C28B12068006840F055
:102450000800216808602068006840F001002168D9
:10246000086006E000BF002084F8340000BF4FF091
:1024700002084046C0E70000F8B502460B460025BA
:10248000002400200021DCE0012606FA01F51E6888
:1024900006EA0504AC4273D15E68022E02D05E6883
:1024A000122E13D1CF0802F1200656F827004E074E
:1024B000F70E0F26BE40B0434F07FF0E1E69BE4009
:1024C0003043CF0802F1200646F8270010684F007D
:1024D0000326BE40B0431E7906F003064F00BE40FF
:1024E000304310605E68012E08D05E68022E05D071
:1024F0005E68112E02D05E68122E13D190684F00D4
:102500000326BE40B0434F00DE68BE4030439060BB
:10251000506801268E40B0431E79C6F300168E40E7
:1025200030435060D0684F000326BE40B0434F0098
:102530009E68BE403043D0605E6806F08056B6F1BB
:10254000805F7DD100BF00260096404E366846F47D
:1025500080463E4F3E603E46366806F48046009612
:1025600000BF00BF3A4E8F0856F827008E07370F7E
:102570000F26BE40B043374EB24202D1002624E0BF
:102580005EE0354EB24201D101261EE0334EB2422A
:1025900001D1022619E0324EB24201D1032614E0E5
:1025A000304EB24201D104260FE02F4EB24201D18B
:1025B00005260AE02D4EB24201D1062605E02C4E3A
:1025C000B24201D1072600E008268F073F0FBE4028
:1025D00030431F4E8F0846F82700264E3068A04330
:1025E0005E6806F48036B6F5803F00D12043214E68
:1025F0003060361D3068A0435E6806F40036B6F5DC
:10260000003F00D120431B4E361D3060361D306820
:10261000A0435E6806F48016B6F5801F00D1204303
:10262000144E08363060361D3068A0435E6806F4EC
:102630000016B6F5001F00D120430E4E0C36306058
:10264000491C1029FFF420AFF8BD000044380240B7
:102650000838014000000240000402400008024027
:10266000000C02400010024000140240001802401A
:10267000001C0240003C0140024613690B400BB1B4
:10268000012000E0002070470AB1816101E00B04E5
:102690008361704701480068000C7047002004E027
:1026A00001480068704700006C0000200348006883
:1026B0000349097808440149086070476C0000200C
:1026C0007400002010B50A48006840F40070084902
:1026D00008600846006840F480600860052000F04B
:1026E0007FF80F2000F006F800F02AF8002010BD57
:1026F000003C024070B504460E4800784FF47A71F1
:10270000B1FBF0F00C490968B1FBF0F5284600F088
:102710009FFC08B1012070BD102C07D20022214679
:10272000501E00F01EF80548046001E00120F2E7A9
:102730000020F0E7740000206800002070000020F6
:10274000704701460846002809DB00F01F030122FC
:102750009A4043099B0003F1E023C3F8002100BF26
:1027600070472DE9F05F80460D461646002708F0B9
:102770004BF8074639462A46334601F00700C0F1B8
:10278000070ABAF1040F02D94FF0040A01E0C0F1C0
:10279000070AD14600F1040ABAF1070F02D24FF03E
:1027A000000A01E0A0F1030AD4464FF0010A0AFA38
:1027B00009FAAAF1010A0AEA020A0AFA0CFA4FF027
:1027C000010B0BFA0CFBABF1010B0BEA030B4AEA12
:1027D0000B042146404608F01FF8BDE8F09F0000BA
:1027E00000BF00F00702064B19684FF6FF031940BF
:1027F000044B0B4343EA0221014B196000BF7047B1
:102800000CED00E00000FA0570B504460D460CB969
:10281000012070BD5848006800F00F00A84209D29E
:1028200055490D700846006800F00F00A84201D01D
:102830000120EEE7207800F0020002281DD1207868
:1028400000F00400042805D14C48006840F4E05032
:102850004A490860207800F00800082805D1474858
:10286000006840F46040454908604448006820F032
:10287000F000A168084341490860207800F0010099
:10288000A8B36068012807D13C4808380068C0F345
:102890004040B8B90120BCE76068022802D06068F7
:1028A000032807D1354808380068C0F3406048B9AC
:1028B0000120AEE7314808380068C0F3400008B98D
:1028C0000120A6E72D48006820F003006168084356
:1028D0002A490860FFF7E4FE064609E0FFF7E0FE3C
:1028E000801B41F28831884202D9032091E707E03A
:1028F0002248006800F00C006168B0EB810FEDD158
:102900001D48006800F00F00A84209D91A490D704F
:102910000846006800F00F00A84201D0012078E7C7
:10292000207800F00400042807D11448006820F43F
:10293000E050E168084311490860207800F0080081
:10294000082808D10D48006820F46040216940EA59
:10295000C1000A49086000F03DF808490968C1F360
:102960000311074A515CC840064908600F20FFF771
:10297000C1FE00204DE70000003C02400838024044
:1029800088E40008680000200148006870470000E3
:102990006800002000B5FFF7F7FF04490968C1F39C
:1029A0008221034A515CC84000BD00000838024043
:1029B00098E4000800B5FFF7E7FF04490968C1F390
:1029C0004231034A515CC84000BD00000838024053
:1029D00098E400082DE9F047002400250026A146D0
:1029E0002548006800F00C0020B1042805D0082814
:1029F0003AD105E0DFF8849039E0DFF8849036E0E2
:102A00001D48001F006800F03F041B48001F0068BD
:102A100000F4800078B11A481749091F0968C1F30A
:102A20008811A0FB01700146224600233846FDF7BD
:102A300090FC05460EE011480F49091F0968C1F3D3
:102A40008811A0FB01700146224600233846FDF79D
:102A500080FC05460848001F0068C0F30140401C88
:102A60004600B5FBF6F902E0DFF8109000BF00BFAA
:102A70004846BDE8F0870000083802400024F40012
:102A800000127A00F8B504460CB90120F8BD207890
:102A900000F00100002874D0F948006800F00C0034
:102AA00004280DD0F648006800F00C00082813D167
:102AB000F348001F006800F48000B0F5800F0BD1D0
:102AC000EF4808380068C0F34040002859D06068DB
:102AD000002856D10120D9E700BF6068B0F5803FDB
:102AE00008D1E7480838006840F48030E4490839E4
:102AF00008601EE06068B0F5A02F0DD1E0480838EE
:102B0000006840F48020DE49083908600846006803
:102B100040F4803008600CE0D9480838006820F4A0
:102B20008030D749083908600846006820F48020C2
:102B3000086000BF606890B1FFF7B2FD054606E08F
:102B4000FFF7AEFD401B642801D903209EE7CC4867
:102B500008380068C0F340400028F1D011E0FFF7CA
:102B60009FFD054606E0FFF79BFD401B642801D949
:102B700003208BE7C24808380068C0F340400028B3
:102B8000F1D1207800F0020002285FD1BC48006833
:102B900000F00C0058B1BA48006800F00C0008289A
:102BA0001CD1B748001F006800F48000B0B9B448D9
:102BB00008380068C0F3400020B1E068012801D067
:102BC000012063E7AE480838006820F0F80021696A
:102BD00040EAC100AA490839086037E0E06800B35C
:102BE0000120A8490860FFF75BFD054606E0FFF7F6
:102BF00057FD401B022801D9032047E7A0480838A9
:102C00000068C0F340000028F1D09D4808380068F3
:102C100020F0F800216940EAC100994908390860AC
:102C200014E0002097490860FFF73AFD054606E0EA
:102C3000FFF736FD401B022801D9032026E7904804
:102C400008380068C0F340000028F1D1207800F077
:102C5000080008282CD16069A8B101208A490860C1
:102C6000FFF71EFD054606E0FFF71AFD401B022890
:102C700001D903200AE782486C300068C0F34000A5
:102C80000028F1D014E000207F490860FFF708FD1C
:102C9000054606E0FFF704FD401B022801D903208A
:102CA000F4E677486C300068C0F340000028F1D1AA
:102CB000207800F00400042870D1002670483830D5
:102CC000006800F0805090B900BF002000906C4870
:102CD0003830006840F08050694938310860084653
:102CE000006800F08050009000BF00BF01266748D8
:102CF000006800F48070B0B96448006840F48070E7
:102D000062490860FFF7CCFC054606E0FFF7C8FC07
:102D1000401B022801D90320B8E65C48006800F493
:102D200080700028F2D000BFA068012808D1544864
:102D30006830006840F001005149683108601DE0CA
:102D4000A06805280DD14E486830006840F00400A6
:102D50004B49683108600846006840F0010008608F
:102D60000CE047486830006820F0010044496831B1
:102D700008600846006820F00400086000BFA068F2
:102D8000A8B1FFF78DFC054609E0FFF789FC401B61
:102D900041F28831884202D9032077E626E038489C
:102DA00068300068C0F340000028EED013E0FFF761
:102DB00077FC054608E0FFF773FC401B41F28831C1
:102DC000884201D9032061E62D4868300068C0F3CD
:102DD00040000028EFD1012E07D129483830006883
:102DE00020F0805026493831086000BFA069B8B390
:102DF0002348006800F00C0008285ED0A069022873
:102E000046D100201F490866FFF74AFC054606E048
:102E1000FFF746FC401B022801D9032036E618487C
:102E200008380068C0F340600028F1D1D4E90701F8
:102E30000843616A40EA81110122A06AC2EB500096
:102E400041EA00412C20005D41EA00600C49091F65
:102E5000086001200B490866FFF722FC054607E0E1
:102E60002DE0FFF71DFC401B022801D903200DE6D1
:102E7000034808380068C0F340600028F1D01EE025
:102E80000838024000004742800E47420070004070
:102E900000200C490866FFF703FC054606E0FFF733
:102EA000FFFB401B022801D90320EFE5064800681C
:102EB000C0F340600028F2D101E00120E6E50020E7
:102EC000E4E50000000047420038024070B50446C7
:102ED0000E4615460CB9012070BD94F8490028B97A
:102EE000002084F84800204600F01CF804F1080196
:102EF0002068FEF7C9F83146A2682068FEF7F2F8AC
:102F00002946236BD4E90102FEF79AF8A1682068EC
:102F100050F8210040F00100A268216841F8220029
:102F20000020D9E710B586B0044600BF002000900D
:102F30003848006840F001003649086008460068DB
:102F400000F00100009000BF00BF00BF0020009013
:102F500030480838006840F008002E4908390860F9
:102F60000846006800F00800009000BF00BF00BFE6
:102F7000002000900846006840F0100008600846F5
:102F8000006800F01000009000BF00BF00BF0020EC
:102F900000900846006840F020000860084600687D
:102FA00000F02000009000BF00BF00BF0020009094
:102FB0000846006840F0400008600846006800F0DD
:102FC0004000009000BF00BF4CF23370019002201F
:102FD000029001200390032004900C20059001A989
:102FE0000D48FFF749FA4FF68070019001A90B4890
:102FF000FFF742FA4FF48050019001A90848FFF70B
:103000003BFA4FF48050019001A90648FFF734FACB
:1030100006B010BD38380240000C024000100240DB
:103020000014024000180240042808D14FF0E021AB
:10303000096941F004014FF0E022116107E04FF00F
:10304000E021096921F004014FF0E022116170478D
:1030500070B504462546681EB0F1807F01D301207B
:103060000FE0681E4FF0E02148610F214FF0FF3064
:1030700007F0D2FB00204FF0E021886107200861B3
:10308000002070BD7047704710B5024600BF92F82F
:103090003C00012801D1022010BD012082F83C0033
:1030A00000BF022082F83D00106843681068846801
:1030B00023F070030868034324F080044868044345
:1030C0001068436010688460012082F83D0000BFF2
:1030D000002082F83C0000BF00BFDDE710B50446C9
:1030E0000CB9012010BD94F83D0028B9002084F8E7
:1030F0003C00204600F00CF8022084F83D00211D21
:10310000206805F099FD012084F83D000020E9E7E2
:1031100010B586B00446142101A8FDF795FA206881
:10312000B0F1804F2FD100BF0020009033480068DD
:1031300040F00100314908600846006800F00100D5
:10314000009000BF00BF00BF002000902B48103847
:10315000006840F0010029491039086008460068FD
:1031600000F00100009000BF00BF0120019002208C
:10317000029000200390032004900120059001A9F3
:103180001F48FFF779F91F492068884217D100BF0F
:10319000002000901948006840F0020017490860BC
:1031A0000846006800F00200009000BF00BF032244
:1031B00001211D20FFF7D5FA1D20FFF7C2FA1249A1
:1031C0002068884217D100BF002000900B4800689B
:1031D00040F00400094908600846006800F0040057
:1031E000009000BF00BF012211461E20FFF7B9FA70
:1031F0001E20FFF7A6FA06B010BD000040380240BE
:103200000000024000040040000800400146022087
:1032100081F83D000868806800F00702062A05D0A2
:103220000868006840F001000B681860012081F810
:103230003D000020704701460868C06840F001006A
:103240000B68D8600868806800F00702062A05D07D
:103250000868006840F001000B68186000207047A3
:103260000146022081F83D0000BF0868006A41F273
:103270001112104050B90868006A9210104028B925
:103280000868006820F001000A68106000BF012093
:1032900081F83D000020704701460868C06820F0B2
:1032A00001000A68D06000BF0868006A41F211128C
:1032B000104050B90868006A9210104028B9086898
:1032C000006820F001000A68106000BF002070470D
:1032D0002DE9F04104460D4600BF94F83C0001285A
:1032E00002D10220BDE8F081012084F83C0000BF3B
:1032F000022084F83D002068866826F0770626F4D0
:103300007F46206886602868502833D00CDC20284F
:1033100050D004DC00284BD0102851D149E030288F
:1033200049D040284CD139E060282DD0702807D0F2
:10333000B0F5805F03D0B0F5005F41D10DE040E013
:10334000D5E902136A68206805F0F3FC20688668F6
:1033500046F077062068866033E0D5E902136A6894
:10336000206805F0E6FC2068806840F48040216811
:10337000886026E0EA686968206805F0CBFD502186
:10338000206805F0E1FC1CE0EA686968206805F047
:10339000D4FD6021206805F0D7FC12E0EA68696876
:1033A000206805F0B7FD4021206805F0CDFC08E05D
:1033B00000BF00BF00BF2968206805F0C5FC00E021
:1033C00000BF00BF012084F83D0000BF002084F84A
:1033D0003C0000BF00BF85E7704710B50446206879
:1033E0000069C0F34000D8B12068C068C0F3400055
:1033F000B0B16FF0020021680861012020772068D9
:10340000806900F0030018B12046FFF7E5FF05E0F2
:10341000204600F0ADF8204600F090F9002020771B
:1034200020680069C0F38000D8B12068C068C0F38C
:103430008000B0B16FF0040021680861022020779D
:103440002068806900F4407018B12046FFF7C4FF7F
:1034500005E0204600F08CF8204600F06FF90020CF
:10346000207720680069C0F3C000D8B12068C06828
:10347000C0F3C000B0B16FF00800216808610420FB
:1034800020772068C06900F0030018B12046FFF7DC
:10349000A3FF05E0204600F06BF8204600F04EF94F
:1034A0000020207720680069C0F30010D8B12068A0
:1034B000C068C0F30010B0B16FF01000216808615F
:1034C000082020772068C06900F4407018B12046B9
:1034D000FFF782FF05E0204600F04AF8204600F0A2
:1034E0002DF9002020772068006900F0010058B114
:1034F0002068C06800F0010030B16FF00100216861
:103500000861204600F08CF920680069C0F3C01003
:1035100058B12068C068C0F3C01030B16FF08000AF
:10352000216808612046FFF7ADFD20680069C0F3FF
:10353000801058B12068C068C0F3801030B16FF0BF
:10354000400021680861204600F092F92068006977
:10355000C0F3401058B12068C068C0F3401030B1CB
:103560006FF02000216808612046FFF78CFD10BD38
:10357000704770B504460D46164600BF94F83C00EF
:10358000012801D1022070BD012084F83C0000BF59
:10359000022084F83D0036B1042E1BD0082E31D015
:1035A0000C2E5ED145E02946206805F0D7FB206847
:1035B000806940F00800216888612068806920F0F7
:1035C00004002168886120688069296908432168AE
:1035D000886147E02946206805F0F8FB206880698B
:1035E00040F40060216888612068806920F4806070
:1035F0002168886120688069296940EA0120216882
:1036000088612FE02946206805F01EFC2068C0690B
:1036100040F008002168C8612068C06920F00400FB
:103620002168C8612068C069296908432168C861A8
:1036300018E02946206805F043FC2068C06940F482
:1036400000602168C8612068C06920F4806021683A
:10365000C8612068C069296940EA01202168C86101
:1036600000E000BF00BF012084F83D0000BF002043
:1036700084F83C0000BF00BF85E710B504460CB9D4
:10368000012010BD94F83D0028B9002084F83C00CA
:10369000204600F00DF8022084F83D00211D20682E
:1036A00005F0CAFA012084F83D000020E9E7000097
:1036B00010B586B004461E492068884235D100BF47
:1036C000002000901B48006840F480701949086091
:1036D0000846006800F48070009000BF00BF00BF83
:1036E0000020009013481038006840F02000114975
:1036F000103908600846006800F02000009000BF04
:1037000000BF142101A8FCF79FFF4FF40070019047
:1037100001200390032004900920059002200290CC
:1037200001A90548FEF7A8FE00BF06B010BD0000C5
:103730000020004040380240001402407047000062
:1037400070B504460E4601223146206805F0E0FAC5
:103750000F492068884203D00E492068884201D171
:10376000012000E0002028B12068406C40F40040B7
:10377000216848642068806800F00705062D05D0A0
:103780002068006840F0010021680860002070BDDA
:10379000000001400004014030B504460D460022FF
:1037A0002946206805F0B4FA1B492068884203D0F6
:1037B0001A492068884201D1012000E0002090B120
:1037C00000BF2068006A41F21111084050B920681A
:1037D000006A8910084028B92068406C20F4004035
:1037E0002168486400BF00BF2068006A41F21111DF
:1037F000084050B92068006A8910084028B920683C
:10380000006820F001002168086000BF012084F8F2
:103810003D00002030BD00000000014000040140D8
:103820000E49884218D10E490968496A0D4A11604B
:10383000114609680C4A1268914209D90949096878
:10384000094A1268891A01EB81014900074A11608F
:1038500004490968044A116070470000986F00200D
:10386000186F0020C0010020C4010020C801002002
:103870007047704701460022002391F8392091F8E3
:103880003A3042EA030070472DE9F04704462068C9
:1038900005682068C668206847694FF00008C1467F
:1038A00005F00F08B8F1000F0AD105F0200038B17B
:1038B00006F0200020B1204606F0B8FBBDE8F087F6
:1038C000B8F1000F6ED007F0010018B906F490703F
:1038D000002867D005F0010030B106F4807018B1FF
:1038E000E06B40F00100E06305F0040030B107F048
:1038F000010018B1E06B40F00200E06305F0020047
:1039000030B107F0010018B1E06B40F00400E06353
:1039100005F0080030B107F0010018B1E06B40F08D
:103920000800E063E06B70B305F0200028B106F0FA
:10393000200010B1204606F079FB20684069C0F3F2
:103940008019E06B00F0080010B9B9F1000F23D026
:10395000204606F04BFB2068406900F040004028FC
:1039600016D12068406920F0400021684861606BF2
:1039700050B11748616B0865606BFEF782FB10B1B0
:10398000606B016D88470CE02046FFF772FF08E08E
:103990002046FFF76EFF04E02046FFF76AFF002095
:1039A000E0638BE705F0800030B106F0800018B1CD
:1039B000204606F043FD81E705F0400030B106F0F7
:1039C000400018B1204606F021FB77E700BF75E7FD
:1039D000D99F000810B504460CB9012010BDA0699C
:1039E00000B100E000BF94F8390028B9002084F845
:1039F0003800204600F028F8242084F83900206898
:103A0000C06820F400502168C860204606F062FBC0
:103A10002068006920F490402168086120684069AE
:103A200020F02A00216848612068C06840F40050F6
:103A30002168C8600020E063202084F8390084F801
:103A40003A000020CAE7000010B586B004462249BB
:103A5000206888423ED100BF002000901F480068C7
:103A600040F001001D4908600846006800F00100B0
:103A7000009000BF00BF00BF002000901748143026
:103A8000006840F0100015491431086008460068CD
:103A900000F01000009000BF00BF48150190022008
:103AA000029001200390022004900720059001A9B4
:103AB0000B48FEF7E1FC4FF48060019001A9084833
:103AC000FEF7DAFC2520FEF73CFE032211462520F6
:103AD000FEF747FE06B010BD00100140303802402E
:103AE0000000024010B5034693F83A0020282FD179
:103AF00001B10AB9012010BD00BF93F838000128B8
:103B000001D10220F7E7012083F8380000BF996255
:103B10009A85DA850020D863222083F83A0000BF16
:103B2000002083F8380000BF1868C06840F4807037
:103B30001C68E0601868406940F001001C68606122
:103B40001868C06840F020001C68E0600020D2E7E0
:103B50000220D0E71D4A0168914236D11C490988EC
:103B600001F4004189BB1A49098801F4804171B10F
:103B7000184909780A2903D00021154A118024E048
:103B80001349098841F40041114A11801DE011498F
:103B900009780D2906D10E49098841F480410C4A63
:103BA000118012E00B490978094A1288C2F30D020C
:103BB000094B995406490988491C054A1180114648
:103BC0000988C72901DD00211180704700100140DC
:103BD0008400002086000020D85B0020704700BFD2
:103BE000FEE7000010B500200F4908600F4800688C
:103BF00020F440200D4908600846006840F4802009
:103C0000086000200A49C1F8A402022007F00EFC57
:103C1000012005490860022007F008FC0020044943
:103C2000C1F8A00210BD0000A08240420004024082
:103C30000080404200B587B000BF002001901048CE
:103C4000006840F002000E4908600846006800F075
:103C50000200019000BF00BF4FF4407002900120AD
:103C6000039004900220059002A90648FEF704FC88
:103C70000120054908600549C1F8A00207B000BD50
:103C80003038024000040240A4824042008040429A
:103C900010B500200F4908600F48006820F440204C
:103CA0000D4908600846006840F480200860012043
:103CB0000A49C1F8A402022007F0B8FB0120054917
:103CC0000860022007F0B2FB00200449C1F8A002FE
:103CD00010BD0000A082404200040240008040422B
:103CE00070B5054600241648006820F440201449A9
:103CF0000860084600680860002616E000201149A8
:103D00000860022007F092FB01200F49C1F8A002D1
:103D10006006040E0B487C38006808B1601CC4B211
:103D2000012007F083FB701CC6B2082EE6DB15B934
:103D3000FFF7AEFF01E0FFF755FF204670BD000022
:103D400000040240A08240420080404270B5044618
:103D50001548006820F440201349086008460068B0
:103D600040F480200860002010490860002517E01A
:103D7000E0090E49091D08606006040E022007F0E4
:103D800055FB01200A49C1F8A002022007F04EFBB2
:103D9000002006490860022007F048FB681CC5B2F5
:103DA000082DE5DB70BD000000040240A082404207
:103DB0000080404210B50F48006820F440200D49B3
:103DC00008600846006840F48020086001200A4925
:103DD00008600A49C1F8A002042007F027FB002070
:103DE00005490860042007F021FB00200349C1F8C1
:103DF000A00210BD00040240A48240420080404264
:103E000010B50F48006820F440200D4908600846AE
:103E1000006840F48020086000200A4908600A49D0
:103E2000C1F8A402042007F001FB01200549086045
:103E30000549C1F8A402042007F0F8FA10BD0000FB
:103E400000040240A08240420080404210B500249D
:103E50001348006820F440201149086008460068B3
:103E6000086001200F49086007F0E0FA01200E49C0
:103E7000C1F8A00207F0DAFA07E0601CC4B2FA2C1D
:103E800003DDFFF7BDFF012010BD06488038006844
:103E90000028F2D10349091F086000BFF4E70000C1
:103EA00000040240A48240420080404210B5244AEF
:103EB000918810680022FEF7E7FB224A918810687B
:103EC0000122FEF7E1FB204A918810680022FEF7EC
:103ED000DBFB1E4A918810680022FEF7D5FB1C4AC6
:103EE000918810680022FEF7CFFB1A4A918810686B
:103EF0000022FEF7C9FB184A918810680022FEF7DD
:103F0000C3FB164A918810680022FEF7BDFB144AD5
:103F1000918810680022FEF7B7FB124A918810685A
:103F20000022FEF7B1FB104A918810680022FEF7CC
:103F3000ABFB0E4A918810680022FEF7A5FB10BD6E
:103F4000F8000020100100200801002018010020C6
:103F5000200100202801002030010020380100202D
:103F6000D8000020E0000020E8000020F000002041
:103F700010B50C4A918810680022FEF785FB0120DD
:103F800007F0F2F9074A918810680122FEF77CFBDE
:103F90001E2007F0E9F9034A918810680022FEF715
:103FA00073FB10BD000100201CB506F083FB2CA0A4
:103FB000006801902BA000680090FFF777FFFFF7E3
:103FC000D7FF01AA0321012006F092FA6A460321D5
:103FD000084606F08DFA2448808981B2032006F055
:103FE0004FFB2148008881B2002006F049FB1E48A3
:103FF000808881B2012006F043FB1B48008981B212
:10400000022006F03DFB19480168002006F018FB6D
:1040100016484168012006F013FB1448816802200D
:1040200006F00EFB1148C168032006F009FB10489A
:10403000808981B2032006F0E9FA0D48008881B238
:10404000002006F0E3FA0A48808881B2012006F0D9
:10405000DDFA0748008981B2022006F0D7FA1CBDBC
:10406000D300000000030000006E00205401002077
:104070006401002000B587B000BF002001900D480A
:10408000006840F010000B4908600846006800F026
:104090001000019000BF00BF1C2002900020039080
:1040A000012004900320059002A90348FEF7E4F9DB
:1040B00007B000BD303802400010024010B5044681
:1040C000012C01D1224908702148007848B3102101
:1040D0002048FEF7D1FA48B108211E48FEF7CCFA75
:1040E00020B104211B48FEF7C7FAD0B90A2007F017
:1040F00067F900201649087010211648FEF7BCFA2F
:1041000008B9012010BD08211248FEF7B5FA08B918
:104110000220F7E704210F48FEF7AEFAA8B9032002
:10412000F0E710210B48FEF7A7FA01280DD108216E
:104130000848FEF7A1FA012807D104210548FEF737
:104140009BFA012801D1024908700020DAE700003B
:104150007C0100200010024070B50446002609488A
:104160000588408845430021084602F0CDFE03F053
:104170003FF900BF02E004490C80761CAE42FAD33E
:1041800070BD0000606E00208000006C10B5044619
:1041900049488471002C45D1F020474908804FF4EC
:1041A000A07048800846808845F21051884210D19E
:1041B0004FF43050404908814FF4285048814FF463
:1041C0002C5088814FF4F07008804FF4487048807C
:1041D0001AE03948808841F6631188420DD12C20BD
:1041E000354908812B2048812A2088814FF4F070BE
:1041F00008804FF44870488006E02C202E49088142
:104200002A2048812B2088812B48808845F2103154
:1042100088424CD14FF4A070274908804FF4F070C9
:10422000488044E04FF4A07023490880F020488083
:104230000846808845F21051884210D14FF4305022
:104240001D4908814FF4285048814FF42C50888133
:104250004FF4487008804FF4F07048801AE0164818
:10426000808841F6631188420DD12C2012490881C3
:104270002A2048812B2088814FF4487008804FF411
:10428000F070488006E02C200B4908812A204881E4
:104290002B2088810848808845F21031884206D159
:1042A0004FF4F070044908804FF4A070488000205B
:1042B00002F010FD10BD0000606E00202DE9FF4FE0
:1042C00084B081468A460020039002900698A0EBB5
:1042D00009050798A0EB0A06CDF80490CDF800A0D8
:1042E000002D01DD012705E00DB9002702E04FF0A8
:1042F000FF376D42002E02DD4FF0010806E016B9CF
:104300004FF0000802E04FF0FF387642B54201DD81
:104310002C4600E034464FF0000B21E0009A91B2A9
:10432000019A90B200F022F8039828440390029872
:10433000304402900398A04205DD0398001B0390CF
:104340000198384401900298A04205DD0298001BB4
:1043500002900098404400900BF101001FFA80FB8E
:10436000601C8345DADD08B0BDE8F08F30B5044647
:104370000D462946204602F0C7FD03F039F80248F1
:1043800000880249088030BD740100208000006C64
:104390002DE9F04306460F4690460024454603208B
:1043A000A0EB48093CE07A1B91B2321990B2FFF7BA
:1043B000DDFF3A1B91B2721990B2FFF7D7FF3A199D
:1043C00091B2721990B2FFF7D1FF7A1991B23219F6
:1043D00090B2FFF7CBFF7A1991B2321B90B2FFF780
:1043E000C5FF3A1991B2721B90B2FFF7BFFF7A1B5B
:1043F00091B2321B90B2FFF7B9FF3A1B91B2721B18
:1044000090B2FFF7B3FF641CB9F1000F03DAA0000C
:10441000801D814404E0601B80000A3081446D1ED1
:10442000AC42C0DDBDE8F08330B504460D463948E6
:10443000808845F21051884220D13649488902F0DF
:10444000CBFF201202F0BCFF32494989491C88B2D7
:1044500002F0C2FFE0B202F0B3FF2E49888902F0F9
:10446000BBFF281202F0ACFF2A498989491C88B297
:1044700002F0B2FFE8B202F0A3FF42E025488088D4
:1044800041F66311884228D12248807920B9214819
:104490000088401E001B84B21E49488902F09CFF20
:1044A000201202F08DFFE0B202F08AFF201202F02B
:1044B00087FFE0B202F084FF1649888902F08CFF82
:1044C000281202F07DFFE8B202F07AFF281202F013
:1044D00077FFE8B202F074FF13E00E49488902F05A
:1044E0007BFF201202F06CFFE0B202F069FF094985
:1044F000888902F071FF281202F062FFE8B202F030
:104500005FFF04480089044908804FF0D841A1F8B2
:10451000802030BD606E00207E00006C2DE9F04FE1
:1045200005460E4617469846DDF824A04FF0000BCE
:10453000781B401C1FFA80FB344613E021462846B6
:1045400002F0E2FC02F054FF4FF0000906E00749D8
:10455000A1F800A009F101001FFA80F9D945F6DBA6
:10456000601C84B24445E9DDBDE8F08F8000006C3A
:1045700000B595B000BF00200190FE48006840F0F3
:104580000200FC4908600846006800F00200019043
:1045900000BF00BF4FF40040109001201190129016
:1045A0000320139010A9F448FDF766FF4FF0204058
:1045B000F2490860F2484860062088600021EF4810
:1045C000C16001611021416100218161C1614162CD
:1045D0004FF4805181620021C1624FF48041016338
:1045E0000021416381634FF48011C1630F20099062
:1045F00000200A903C200B9000200F90059009208D
:10460000029000200390082004900020089002AA45
:1046100009A9DA48FEF75AFC322006F0D1FED32071
:1046200002F0DAFE02F022FBD649888002F01EFB7F
:10463000D449888002F01AFBD249888008468088D5
:104640004FF6FF7101EA0020CE49888002F00EFB90
:10465000CC4989880843CB4988800846808849F23C
:10466000413188427DD0042002F0B6FE02F0FEFA0D
:10467000C449888002F0FAFAC249888002F0F6FA4A
:10468000C0498880084680884FF6FF7101EA002003
:10469000BC49888002F0EAFABA4989880843B949D6
:1046A00088800846808848F25251884203D147F2F8
:1046B0008970B4498880B348808847F289718842FC
:1046C000D0D0D42002F088FE02F0D0FAAD49888024
:1046D00002F0CCFAAB49888002F0C8FAA949888078
:1046E000084680884FF6FF7101EA0020A5498880BE
:1046F00002F0BCFAA34989880843A2498880084689
:10470000808845F2103188426BD055214FF47040BB
:1047100002F078FEAA214FF2010002F073FE52214E
:104720004FF2020002F06EFE08214FF2030002F089
:1047300069FE01214FF2040002F064FE4FF445408F
:1047400002F04AFE02F092FA8E498880084680887C
:104750004FF6FF7101EA00208A4988804CF201502F
:1047600000E03EE002F038FE02F080FA85498988D8
:10477000084384498880052006F022FE814880880D
:10478000B0F5004F03D145F210507E4988807D4836
:10479000808845F21051884223D0A12002F01CFEEF
:1047A00002F064FA7749888002F060FA75498880DF
:1047B000084680884FF6FF7101EA00207149888021
:1047C00002F054FA6F49898808436E498880084688
:1047D000808845F26171884203D141F663106949CE
:1047E00088806848818868A0FBF72AFE6548808831
:1047F00049F2413188427CD1CF2002F0EDFD00200A
:1048000002F0DEFDC12002F0DBFD302002F0D8FD19
:10481000ED2002F0E1FD642002F0D2FD032002F061
:10482000CFFD122002F0CCFD812002F0C9FDE8206E
:1048300002F0D2FD852002F0C3FD102002F0C0FD81
:104840007A2002F0BDFDCB2002F0C6FD392002F037
:10485000B7FD2C2002F0B4FD002002F0B1FD3420A1
:1048600002F0AEFD022002F0ABFDF72002F0B4FD35
:10487000202002F0A5FDEA2002F0AEFD002002F0AB
:104880009FFD002002F09CFDC02002F0A5FD1B2032
:1048900002F096FDC12002F09FFD012002F090FD84
:1048A000C52002F099FD302002F08AFD302002F090
:1048B00087FDC72002F090FDB72002F081FD362071
:1048C00002F08AFD482002F07BFD3A2002F084FDD0
:1048D000552002F075FDB12002F07EFD002002F0AF
:1048E0006FFD1A2002F06CFDB62002F075FD0A2063
:1048F00000E0ACE002F064FDA22002F061FDF220D5
:1049000002F06AFD002002F05BFD262002F064FD4B
:10491000012002F055FDE02002F05EFD0F2002F0C4
:104920004FFD2A2002F04CFD282002F049FD08200E
:1049300002F046FD0E2002F043FD082002F040FD8B
:10494000542002F03DFDA92002F03AFD432002F080
:1049500037FD0A2002F034FD0F2002F031FD002067
:1049600002F02EFD002002F02BFD002002F028FDB9
:10497000002011E03038024000040240106E002098
:10498000040100A0606E0020204C43442049443ABA
:1049900025780D0A0000000002F012FDE12002F06F
:1049A0001BFD002002F00CFD152002F009FD172070
:1049B00002F006FD072002F003FD112002F000FDC9
:1049C000062002F0FDFC2B2002F0FAFC562002F03B
:1049D000F7FC3C2002F0F4FC052002F0F1FC102072
:1049E00002F0EEFC0F2002F0EBFC3F2002F0E8FCAE
:1049F0003F2002F0E5FC0F2002F0E2FC2B2002F049
:104A0000EBFC002002F0DCFC002002F0D9FC0120CD
:104A100002F0D6FC3F2002F0D3FC2A2002F0DCFC9E
:104A2000002002F0CDFC002002F0CAFC002002F0C1
:104A3000C7FCEF2002F0C4FC112002F0CDFC78206E
:104A400006F0BEFC292002F0C7FC02F0A6B8FE4822
:104A5000808847F2897188427ED1112002F0BCFC27
:104A6000782006F0ADFC362002F0B6FC002002F003
:104A7000A7FC3A2002F0B0FC052002F0A1FCB22015
:104A800002F0AAFC0C2002F09BFC0C2002F098FC27
:104A9000002002F095FC332002F092FC332002F05B
:104AA0008FFCB72002F098FC352002F089FCBB2077
:104AB00002F092FC322002F083FCC02002F08CFC59
:104AC0000C2002F07DFCC22002F086FC012002F0E6
:104AD00077FCC32002F080FC102002F071FCC4209F
:104AE00002F07AFC202002F06BFCC62002F074FC7D
:104AF0000F2002F065FCD02002F06EFCA42002F032
:104B00005FFCA12002F05CFCE02002F065FCD020FC
:104B100002F056FC002002F053FC022002F050FC90
:104B2000072002F04DFC0A2002F04AFC282002F087
:104B300047FC322002F044FC442002F041FC4220B9
:104B400002F03EFC062002F03BFC0E2002F038FC96
:104B5000122002F035FC00E054E0142002F030FC9A
:104B6000172002F02DFCE12002F036FCD02002F0EC
:104B700027FC002002F024FC022002F021FC072088
:104B800002F01EFC0A2002F01BFC282002F018FC98
:104B9000312002F015FC542002F012FC472002F0F4
:104BA0000FFC0E2002F00CFC1C2002F009FC172068
:104BB00002F006FC1B2002F003FC1E2002F000FCA9
:104BC0002A2002F009FC002002F0FAFB002002F08B
:104BD000F7FB002002F0F4FBEF2002F0F1FB2B20AA
:104BE00002F0FAFB002002F0EBFB002002F0E8FBF1
:104BF000012002F0E5FB3F2002F0E2FB292002F059
:104C0000EBFB22E79048808845F21031884240F063
:104C10007C87ED2002F0E0FB012002F0D1FBFE20BA
:104C200002F0CEFBEE2002F0D7FBDE2002F0C8FB44
:104C3000212002F0C5FBF12002F0CEFB012002F0A2
:104C4000BFFBDF2002F0C8FB102002F0B9FBC4203C
:104C500002F0C2FB8F2002F0B3FBC62002F0BCFBC7
:104C6000002002F0ADFBE22002F0AAFBE22002F0FD
:104C7000A7FBE22002F0A4FBBF2002F0ADFBAA20BC
:104C800002F09EFBB02002F0A7FB0D2002F098FB83
:104C9000002002F095FB0D2002F092FB002002F0B4
:104CA0008FFB112002F08CFB002002F089FB192001
:104CB00002F086FB002002F083FB212002F080FB43
:104CC000002002F07DFB2D2002F07AFB002002F094
:104CD00077FB3D2002F074FB002002F071FB5D20A9
:104CE00002F06EFB002002F06BFB5D2002F068FB1F
:104CF000002002F065FBB12002F06EFB802002F084
:104D00005FFB002002F05CFB8B2002F059FB0020CF
:104D100002F056FB962002F053FB002002F050FBFD
:104D2000B22002F059FB002002F04AFB002002F002
:104D300047FB022002F044FB002002F041FB03206D
:104D400002F03EFB002002F03BFBB32002F044FBEC
:104D5000002002F035FB002002F032FB002002F0C0
:104D60002FFB002002F02CFB002002F029FB00208A
:104D700002F026FB002002F023FB002002F020FBC3
:104D8000002002F01DFB002002F01AFB002002F0C0
:104D900017FB002002F014FB002002F011FB0020A2
:104DA00002F00EFB002002F00BFB002002F008FBDB
:104DB000002002F005FB002002F002FB002002F0C0
:104DC000FFFA002002F0FCFA002002F0F9FA0020BD
:104DD00002F0F6FA002002F0F3FA002002F0F0FAF6
:104DE000B42002F0F9FA8B2002F0EAFA002002F077
:104DF000E7FA962002F0E4FA002002F0E1FAA1209E
:104E000002F0DEFA002002F0DBFAB52002F0E4FA4C
:104E1000022002F0D5FA002002F0D2FA032002F0BC
:104E2000CFFA002002F0CCFA042002F0C9FA0020E8
:104E300002F0C6FAB62002F0CFFA002002F0C0FA63
:104E4000002002F0BDFA01E0606E0020B72002F001
:104E5000C3FA002002F0B4FA002002F0B1FA3F20B9
:104E600002F0AEFA002002F0ABFA5E2002F0A8FADF
:104E7000002002F0A5FA642002F0A2FA002002F05D
:104E80009FFA8C2002F09CFA002002F099FAAC20E4
:104E900002F096FA002002F093FADC2002F090FA79
:104EA000002002F08DFA702002F08AFA002002F051
:104EB00087FA902002F084FA002002F081FAEB20B9
:104EC00002F07EFA002002F07BFADC2002F078FA91
:104ED000002002F075FAB82002F07EFA002002F0FD
:104EE0006FFA002002F06CFA002002F069FA00204C
:104EF00002F066FA002002F063FA002002F060FA85
:104F0000002002F05DFA002002F05AFABA2002F006
:104F100063FA242002F054FA002002F051FA002033
:104F200002F04EFA002002F04BFAC12002F054FACF
:104F3000202002F045FA002002F042FA542002F04C
:104F40003FFA002002F03CFAFF2002F039FA00207C
:104F500002F036FAC22002F03FFA0A2002F030FADC
:104F6000002002F02DFA042002F02AFA002002F0BC
:104F700027FAC32002F030FA3C2002F021FA002088
:104F800002F01EFA3A2002F01BFA002002F018FA92
:104F9000392002F015FA002002F012FA372002F050
:104FA0000FFA002002F00CFA3C2002F009FA00206F
:104FB00002F006FA362002F003FA002002F000FAAE
:104FC000322002F0FDF9002002F0FAF92F2002F061
:104FD000F7F9002002F0F4F92C2002F0F1F900209A
:104FE00002F0EEF9292002F0EBF9002002F0E8F9D6
:104FF000262002F0E5F9002002F0E2F9242002F078
:10500000DFF9002002F0DCF9242002F0D9F90020B9
:1050100002F0D6F9232002F0D3F9002002F0D0F9F3
:105020003C2002F0CDF9002002F0CAF9362002F04F
:10503000C7F9002002F0C4F9322002F0C1F90020C3
:1050400002F0BEF92F2002F0BBF9002002F0B8F9FF
:105050002C2002F0B5F9002002F0B2F9292002F06C
:10506000AFF9002002F0ACF9262002F0A9F90020E7
:1050700002F0A6F9242002F0A3F9002002F0A0F922
:10508000242002F09DF9002002F09AF9232002F07A
:1050900097F9002002F094F9C42002F09DF96220F3
:1050A00002F08EF9002002F08BF9052002F088F959
:1050B000002002F085F9842002F082F9002002F03D
:1050C0007FF9F02002F07CF9002002F079F9182035
:1050D00002F076F9002002F073F9A42002F070F9D2
:1050E000002002F06DF9182002F06AF9002002F0A9
:1050F00067F9502002F064F9002002F061F90C20F9
:1051000002F05EF9002002F05BF9172002F058F976
:10511000002002F055F9952002F052F9002002F02B
:105120004FF9F32002F04CF9002002F049F9E62093
:1051300002F046F9002002F043F9C52002F04CF9D4
:10514000322002F03DF9002002F03AF9442002F04A
:1051500037F9002002F034F9652002F031F900201F
:1051600002F02EF9762002F02BF9002002F028F947
:10517000882002F025F9002002F022F9C62002F072
:105180002BF9202002F01CF9002002F019F9172059
:1051900002F016F9002002F013F9012002F010F9D4
:1051A000002002F00DF9C72002F016F9002002F0ED
:1051B00007F9002002F004F9002002F001F90020B4
:1051C00002F0FEF8C82002F007F9002002F0F8F81B
:1051D000002002F0F5F8002002F0F2F8002002F0C2
:1051E000EFF8C92002F0F8F8002002F0E9F80020FA
:1051F00002F0E6F8002002F0E3F8002002F0E0F808
:10520000002002F0DDF8002002F0DAF8002002F0C1
:10521000D7F8002002F0D4F8002002F0D1F80020E6
:1052200002F0CEF8002002F0CBF8002002F0C8F81F
:10523000002002F0C5F8002002F0C2F8002002F0C1
:10524000BFF8002002F0BCF8E02002F0C5F81620FC
:1052500002F0B6F8002002F0B3F81C2002F0B0F81B
:10526000002002F0ADF8212002F0AAF8002002F0A0
:10527000A7F8362002F0A4F8002002F0A1F846209A
:1052800002F09EF8002002F09BF8522002F098F8FD
:10529000002002F095F8642002F092F8002002F05D
:1052A0008FF87A2002F08CF8002002F089F88B2029
:1052B00002F086F8002002F083F8992002F080F8CE
:1052C000002002F07DF8A82002F07AF8002002F019
:1052D00077F8B92002F074F8002002F071F8C420C9
:1052E00002F06EF8002002F06BF8CA2002F068F8B5
:1052F000002002F065F8D22002F062F8002002F0EF
:105300005FF8D92002F05CF8002002F059F8E020A4
:1053100002F056F8002002F053F8F32002F050F8A3
:10532000002002F04DF8E12002F056F8162002F0BD
:1053300047F8002002F044F81C2002F041F8002059
:1053400002F03EF8222002F03BF8002002F038F88C
:10535000362002F035F8002002F032F8452002F045
:105360002FF8002002F02CF8522002F029F800203B
:1053700002F026F8642002F023F8002002F020F862
:105380007A2002F01DF8002002F01AF88B2002F0BB
:1053900017F8002002F014F8992002F011F800200C
:1053A00002F00EF8A82002F00BF8002002F008F836
:1053B000B92002F005F8002002F002F8C42001F044
:1053C000FFFF002001F0FCFFCA2001F0F9FF0020E0
:1053D00001F0F6FFD22001F0F3FF002001F0F0FF12
:1053E000D82001F0EDFF002001F0EAFFE02001F0FD
:1053F000E7FF002001F0E4FFF32001F0E1FF0020CF
:1054000001F0DEFFE22001F0E7FF052001F0D8FF08
:10541000002001F0D5FF0B2001F0D2FF002001F0A9
:10542000CFFF1B2001F0CCFF002001F0C9FF34208A
:1054300001F0C6FF002001F0C3FF442001F0C0FFCF
:10544000002001F0BDFF4F2001F0BAFF002001F065
:10545000B7FF612001F0B4FF002001F0B1FF792017
:1054600001F0AEFF002001F0ABFF882001F0A8FFA3
:10547000002001F0A5FF972001F0A2FF002001F01D
:105480009FFFA62001F09CFF002001F099FFB720AC
:1054900001F096FF002001F093FFC22001F090FF81
:1054A000002001F08DFFC72001F08AFF002001F0ED
:1054B00087FFD12001F084FF002001F081FFD6207A
:1054C00001F07EFF002001F07BFFDD2001F078FF7E
:1054D000002001F075FFF32001F072FF002001F0C1
:1054E0006FFFE32001F078FF052001F069FF002045
:1054F00001F066FF0A2001F063FF002001F060FF69
:105500001C2001F05DFF002001F05AFF332001F064
:1055100057FF002001F054FF442001F051FF00200C
:1055200001F04EFF502001F04BFF002001F048FF3A
:10553000622001F045FF002001F042FF782001F0D9
:105540003FFF002001F03CFF882001F039FF0020E0
:1055500001F036FF972001F033FF002001F030FF0B
:10556000A62001F02DFF002001F02AFFB72001F056
:1055700027FF002001F024FFC22001F021FF0020BE
:1055800001F01EFFC72001F01BFF002001F018FFF3
:10559000D12001F015FF002001F012FFD52001F00D
:1055A0000FFF002001F00CFFDD2001F009FF0020BB
:1055B00001F006FFF32001F003FF002001F000FFDF
:1055C000E42001F009FF012001F0FAFE002001F0C3
:1055D000F7FE012001F0F4FE002001F0F1FE0220B0
:1055E00001F0EEFE002001F0EBFE2A2001F0E8FEC3
:1055F000002001F0E5FE3C2001F0E2FE002001F079
:10560000DFFE4B2001F0DCFE002001F0D9FE5D2022
:1056100001F0D6FE002001F0D3FE742001F0D0FE90
:10562000002001F0CDFE842001F0CAFE002001F030
:10563000C7FE932001F0C4FE002001F0C1FEA220AD
:1056400001F0BEFE002001F0BBFEB32001F0B8FE69
:10565000002001F0B5FEBE2001F0B2FE002001F0F6
:10566000AFFEC42001F0ACFE002001F0A9FECD2069
:1056700001F0A6FE002001F0A3FED32001F0A0FE61
:10568000002001F09DFEDD2001F09AFE002001F0D7
:1056900097FEF32001F094FE002001F091FEE5203A
:1056A00001F09AFE002001F08BFE002001F088FE40
:1056B000002001F085FE002001F082FE022001F0B2
:1056C0007FFE002001F07CFE292001F079FE002001
:1056D00001F076FE3C2001F073FE002001F070FE28
:1056E0004B2001F06DFE002001F06AFE5D2001F00C
:1056F00067FE002001F064FE742001F061FE0020CE
:1057000001F05EFE842001F05BFE002001F058FEF7
:10571000932001F055FE002001F052FEA22001F07E
:105720004FFE002001F04CFEB32001F049FE0020A6
:1057300001F046FEBE2001F043FE002001F040FED5
:10574000C42001F03DFE002001F03AFECD2001F022
:1057500037FE002001F034FED32001F031FE00209E
:1057600001F02EFEDC2001F02BFE002001F028FECF
:10577000F32001F025FE002001F022FEE62001F0DA
:105780002BFE112001F01CFE002001F019FE342038
:1057900001F016FE002001F013FE562001F010FE6D
:1057A000002001F00DFE762001F00AFE002001F03D
:1057B00007FE772001F004FE002001F001FE6620C4
:1057C00001F0FEFD002001F0FBFD882001F0F8FD56
:1057D000002001F0F5FD992001F0F2FD002001F01C
:1057E000EFFDBB2001F0ECFD002001F0E9FD992068
:1057F00001F0E6FD002001F0E3FD662001F0E0FD90
:10580000002001F0DDFD552001F0DAFD002001F05F
:10581000D7FD552001F0D4FD002001F0D1FD452039
:1058200001F0CEFD002001F0CBFD432001F0C8FDCA
:10583000002001F0C5FD442001F0C2FD002001F070
:10584000BFFDE72001F0C8FD322001F0B9FD0020C6
:1058500001F0B6FD552001F0B3FD002001F0B0FDD0
:10586000762001F0ADFD002001F0AAFD662001F0D8
:10587000A7FD002001F0A4FD672001F0A1FD00209C
:1058800001F09EFD672001F09BFD002001F098FDD6
:10589000872001F095FD002001F092FD992001F094
:1058A0008FFD002001F08CFDBB2001F089FD002060
:1058B00001F086FD992001F083FD002001F080FDBC
:1058C000772001F07DFD002001F07AFD442001F0F9
:1058D00077FD002001F074FD562001F071FD0020DD
:1058E00001F06EFD232001F06BFD002001F068FD4A
:1058F000332001F065FD002001F062FD452001F03C
:105900005FFD002001F05CFDE82001F065FD002056
:1059100001F056FD002001F053FD992001F050FDEB
:10592000002001F04DFD872001F04AFD002001F02C
:1059300047FD882001F044FD002001F041FD772063
:1059400001F03EFD002001F03BFD662001F038FD36
:10595000002001F035FD882001F032FD002001F02B
:105960002FFDAA2001F02CFD002001F029FDBB2015
:1059700001F026FD002001F023FD992001F020FD1B
:10598000002001F01DFD662001F01AFD002001F04D
:1059900017FD552001F014FD002001F011FD5520E8
:1059A00001F00EFD002001F00BFD442001F008FD88
:1059B000002001F005FD442001F002FD002001F06F
:1059C000FFFC552001F0FCFC002001F0F9FCE9206F
:1059D00001F002FDAA2001F0F3FC002001F0F0FC30
:1059E000002001F0EDFC002001F0EAFC002001F0B5
:1059F000F3FCAA2001F0E4FCCF2001F0EDFC002034
:105A000001F0DEFC002001F0DBFC002001F0D8FCFE
:105A1000002001F0D5FC002001F0D2FC002001F0B4
:105A2000CFFC002001F0CCFC002001F0C9FC0020DC
:105A300001F0C6FC002001F0C3FC002001F0C0FC16
:105A4000002001F0BDFC002001F0BAFC002001F0B4
:105A5000B7FC002001F0B4FC002001F0B1FC0020F4
:105A600001F0AEFCF02001F0B7FC002001F0A8FC32
:105A7000502001F0A5FC002001F0A2FC002001F064
:105A80009FFC002001F09CFCF32001F0A5FC00200D
:105A900001F096FCF92001F09FFC062001F090FC3B
:105AA000102001F08DFC292001F08AFC002001F07B
:105AB00087FC3A2001F090FC552001F081FC112078
:105AC00001F08AFC642005F07BFC292001F084FCB5
:105AD000352001F081FC002001F072FC512001F022
